:020000040000FA
:100000006C282A30FC00FC0B032808000830FD0097
:100010000120FD0B082808000530FE000620FE0B1D
:100020000E2808001430FE000620FE0B14280800DD
:100030000A30FF000C20FF0B1A2808001430FF00C4
:100040000C20FF0B202808003230FF000C20FF0B93
:10005000262808006430FF000C20FF0B2C28080025
:10006000C830FF000C20FF0B32280800891009114E
:1000700009108801122030304F20122030304F20DC
:10008000122030304F20122038304F200F304F20B8
:1000900006304F205720080088005E200800091114
:1000A00009104C200800091509104C2008000130E7
:1000B0004F200C200800C0304F200800891000009D
:1000C0000000000000008914000000000000000093
:1000D0000000891001200800831600308800890084
:1000E0008600850003309F00831288018501860108
:1000F0003620A301A4015A30A2000030A000003035
:10010000A10085120512BD2022082302031896289B
:10011000851605122008AC2088000C2005168512D3
:100120002108AC2088000C20A30A8428A301A00A7F
:100130000A302002031D9E28A001A10A02302102DC
:10014000031D812801302002031D8128A001A10187
:1001500085120512FC20842882073F3406345B3464
:100160004F3466346D347D3407347F346F347734E4
:100170007C3439345E347934713457204330532021
:100180006F305320753053206E305320743053201D
:100190006530532072305320203053205630532086
:1001A000613053206C3053203A305320203053209C
:1001B0002108303E53202008303E53205B2043303E
:1001C00053206F305320753053206E3053207430DD
:1001D0005320693053206E30532067305320203035
:1001E000532075305320703053202E3053202E3042
:1001F00053202E30532008005720433053206F30B7
:100200005320753053206E305320743053206530A6
:100210005320723053202030532056305320613009
:1002200053206C3053203A30532020305320210883
:10023000303E53202008303E53205B205230532064
:100240006F3053206C3053206C3053206530532076
:1002500064305320203053206F30532076305320A9
:100260006530532072305320203053207430532097
:100270006F305320203053203030532008003F2966
:040280000034003412
:02400E00713D02
:00000001FF
