:020000040000FA
:10000000831685018801FF308600831288018501EF
:1000100085160030A0008619142809302002031D1F
:100020001328A0012128A00A061A1E280030200249
:10003000031D1D280930A0002128A003861A2128AD
:10004000A00120083020880026200B286430F00012
:10005000FA30F1000000F10B2A28F00B28280800E4
:1000600082073F3406345B344F3466346D347D345C
:1000700007347F346F3477347C3439345E347934E8
:04008000713441286E
:040084000034003410
:02400E00713D02
:00000001FF
