:020000040000FA
:100000008316860188018312860188010030A000D2
:10001000A2000130A100A300230888003920A40A0F
:100020000F302402031D2928003088003920FF30BA
:1000300088003920003088003920FF3088003920BE
:100040000030880039200130A300A4012008A2005C
:100050000C2880302302031D2F282108A20020082D
:100060002202031D36280310A30D0C280310A30C35
:100070000C28492008000230F000FA30F100FA3074
:10008000F2000000F20B4128F10B3F28F00B3D2855
:100090000800FA30F000FA30F1000000F10B4D28B2
:0800A000F00B4B280800532867
:0400A80000340034EC
:02400E00713D02
:00000001FF
