:020000040000FA
:100000000F30A0002330A1003230A2002420A30032
:100010005920A40068202008B0002108B100A601E2
:10002000A701B108031908003008A6070318A70A9A
:10003000B10B152828308400260880002708840A80
:100040008000280829070800A501220820020318BB
:100050005728220821020318572820082107B20038
:100060000310B20C0310B20D3202031942280B2008
:10007000B00035302507840030088000840AA50AC6
:10008000A00A252820082107B200B301033032025C
:10009000031C4D28B30AB2004628353025078400DA
:1000A00033088000840AA50A0330A1072528250803
:1000B0000800A401B4013530840025083402031877
:1000C00066280008A407840AB40A5D2824080800EA
:1000D00083168801861583128801240888008619F2
:1000E0006F28B401353084000530340203188028AD
:1000F000802000088800840AB40A86197D287428A4
:10010000FA30F000FA30F1000000F10B8428F00B17
:06011000822808008A2885
:04011600003400347D
:02400E00713D02
:00000001FF
