:020000040000FA
:100000008316850188018601831288018501860196
:10001000A301A4015A30A2000030A0000030A100CA
:1000200022082302031822288516051220083520ED
:1000300088004620051685122108352088004620B4
:10004000A30A1028A301A00A0A302002031D2A28AF
:10005000A001A10A02302102031D10280130200254
:10006000031D1028A001A101102882073F34063487
:100070005B344F3466346D347D3407347F346F34F1
:1000800077347C3439345E34793471340530F0009F
:10009000FA30F1000000F10B4A28F00B4828080064
:0200A0005028E6
:0400A20000340034F2
:02400E00713D02
:00000001FF
