:020000040000FA
:100000008316860188018312860188010530A000CD
:100010000630A1000730A200200820072007200793
:10002000A300210821072107A40022082207A50018
:100030000530250724022307A60003302007A3006C
:10004000230723072307A30021082107A400220870
:1000500024072302A7000310200CA3000310210C87
:10006000A40022072307A800880021082107A40074
:10007000220824022007A30023070A3EA90026081D
:1000800026072607A6002708270727072707A70010
:100090000310280CA8002908280727022607AA0011
:0400A000880051285B
:0400A40000340034F0
:02400E00713D02
:00000001FF
